:1002A900CAE4C8EBD5BCBFD5B1C828307E323536D3
:1002B90029A3ACB8C4B1E4414443BFDACAE4C8EBEA
:1002C900B5E7C6BDA1A30D0A00B4EDCEF32120BD4B
:1002D900D3CAD5B5BDB7C7CAFDD7D6D7D6B7FB21BF
:1002E90020D5BCBFD5B1C8CEAA307E323536210D56
:1002F9000A00B4EDCEF32120CAE4C8EBD5BCBFD5C2
:10030900B1C8B9FDB4F32C20C7EBB2BBD2AAB4F380
:10031900D3DA323536210D0A00D2D1B8FCD0C2D594
:10032900BCBFD5B1C8210D0A00B4EDCEF32120CA56
:10033900E4C8EBD7D6B7FBB9FDB6E02120CAE4C8BB
:10034900EBD5BCBFD5B1C8CEAA307E323536210D2A
:100359000A003F065B4F666D7D077F6F777C395ECC
:1003690079710040761E7038375C733E783D67506E
:10037900376EBF86DBCFE6EDFD87FFEF460102044E
:05038900081020408077
:0300AB0002051A31
:10051A00C0E0C0D053E6BFE5E61392C7D0D0D0E022
:01052A00329E
:1000AE00E4F593F594F595F596F5B1F5B2F5B3F54E
:1000BE00B4F5C9F5CAF5CBF5CCF5E1F5E2759102CB
:1000CE00F59212053A12000E12040F1204CC7F01A3
:1000DE0012038EE4F516D2AFF517C3E51794087424
:1000EE00809480500B74092517F87611051780EA55
:1000FE00750901750A02750B08750C107BFF7A02E3
:10010E0079A91205073001FDC2010513C3E5139449
:10011E00C8748094804066E4F5137F011204A88EA3
:10012E00188F19C3E51994E8E5189403400B7C0366
:10013E007DE81200518F0D8003750D10AE18AF19AA
:10014E007C037DE81200517E007F64CFCDCFCECCF4
:10015E00CE1200518F0EAE18AF197C007D641200C6
:10016E00517E007F0ACFCDCFCECCCE1200518F0F55
:10017E00AE18AF197C007D0A1200518D10D3E50820
:10018E0094007480948050030201131508E50860F2
:10019E0003020113AF14FED3EF94007480948050C9
:1001AE000302029AD3EF94037480948040030202F8
:1001BE009AC2D5E4F518F519F517E517C39514503D
:1001CE005074002517F582E43400F583E0FFC394E4
:1001DE0030402DEFD394395027AE18AF197C007DE7
:1001EE000A12003F74002517F582E43400F583E00F
:1001FE002FFFEC3ECF24D0F519EF34FFF518800D0C
:10020E00D2D57BFF7A0279D21205078004051780BA
:10021E00A930D5030202A3D3E5199400E518940181
:10022E0040087BFF7A0279FB8068AF19AE18120581
:10023E002BC3E5199464E5189400401EAE18AF194F
:10024E007C007D641200518F09AE18AF197C007DC1
:10025E00641200518C188D198003750910AE18AFF9
:10026E00197C007D641200517E007F0ACFCDCFCE67
:10027E00CCCE1200518F0AAE18AF197C007D0A1237
:10028E0000518D0B7BFF7A03792280067BFF7A0368
:0B029E007932120507E4F51402011389
:0E053A00758E80758CA9758A9AD2A9D28C22F2
:10000E0043BA8090FEA8743FF053BA7F75DE2F7509
:03001E00BC812280
:10040F0043BA8090FEECE4F090FEE87468F090FE42
:10041F00EC7401F090FEF204F0A3E4F090FEF5F01E
:10042F00A37480F090FEB57401F0A3F090FEFD74FC
:0D043F0080F090FEE0E04401F053BA7F220F
:1004CC00E4F5E753E77F53E7BF43E710F5E643E670
:1004DC003043E60853E6FB43E60253BAF743E680A3
:0104EC0022ED
:080003008F99D2002000FD22BC
:10050700120026FF600C120003740129F9E43AFA7D
:0305170080EE2251
:1004ED00AD07AC06538EEF538EF7438E048CD6AF0B
:0A04FD00058FD753AFFB438E10228A
:10038E00EF6402700C438E017FD07EFF1204ED806D
:10039E001BC28E538EFE438E405389BF5389CF7539
:1003AE008DFF758BD0C2AB538FFDD28EE598543F27
:1003BE004440F598D2ACD29C53A23FC200E4F5154E
:0303CE00F5142201
:030023000203D104
:1003D100C0E0C083C082C0D0309823C298C3E51466
:1003E100948074809480400375140074002514F582
:1003F10082E43400F583E599F00514750805309918
:0E04010004C299C200D0D0D082D083D0E032A5
:10044C00C374079516FFE49400FE74862FF582742E
:10045C00033EF583E493F4F5F874092516F8E69059
:10046C00035B93F4F5E80516C3E5169408748094C1
:07047C00804003E4F51622A5
:03000B0002048369
:10048300C0E0C083C082C0D075D000C000C006C029
:100493000712044CD201D007D006D000D0D0D082AE
:0504A300D083D0E0321F
:1004A800E4F5BDF5BEE5BC54F044404FF5BC000092
:1004B8000000E5BC542060FA53BCDFAFBDEFFEADD1
:0404C800BEEDFF2264
:0F052B0043BA8090FEF5E4F0A3EFF053BA7F22BD
:03000000020548AE
:0C054800787FE4F6D8FD7581200200AE3B
:10002600BB010689828A83E0225002E722BBFE02D8
:09003600E32289828A83E493220B
:10003F00EF8DF0A4A8F0CF8CF0A428CE8DF0A42ED5
:02004F00FE228F
:10005100BC000BBE0029EF8DF084FFADF022E4CC93
:10006100F875F008EF2FFFEE33FEEC33FCEE9DEC5C
:10007100984005FCEE9DFE0FD5F0E9E4CEFD22EDA2
:10008100F8F5F0EE8420D21CFEADF075F008EF2FEC
:10009100FFED33FD4007985006D5F0F222C398FDDD
:0500A1000FD5F0EA227A
:00000001FF
