:03000000020100FA
:03000B000201EE01
:10010000E4F593F594F591F592F595F596F5B1F53D
:10011000B2F5B3F5B4F5C9F5CAF5CBF5CCF5E1F513
:10012000E27581D075D000C200C201C202C203755F
:100130003100753000753300753201753500753446
:1001400002753700753604C28C438E805389FB5389
:1001500089FC758CA2758A40D2A9D28CD2AF1201CB
:1001600066C2C002016343BA80E490FECCF090FE08
:10017000CDF0746090FEC8F090FEC9F090FECAF019
:1001800090FECBF0745590FECCF090FECDF0740351
:1001900090FED2F074FF90FED3F074FF90FEB1F0A9
:1001A00074AA90FEB2F0748090FEDDF090FEC0E084
:1001B0004401F053BA7F2243BA80E53090FED5F077
:1001C000E53190FED6F0E53290FED7F0E53390FEB3
:1001D000D8F0E53490FED9F0E53590FEDAF0E5365A
:1001E00090FEDBF0E53790FEDCF053BA7F22C0D002
:1001F000C0E02000170531E53170020530C3E5315C
:1002000094FFE53094074016D2008012E531153195
:1002100070021530E5317006E5307002C200200131
:10022000170533E53370020532C3E53394FFE53239
:0A02300094074016D2018012E53356
:10023A00153370021532E5337006E5327002C201D9
:10024A002002170535E53570020534C3E53594FFFC
:10025A00E53494074016D2028012E535153570024E
:10026A001534E5357006E5347002C202200317051D
:10027A0037E53770020536C3E53794FFE53694074C
:10028A004016D2038012E537153770021536E53766
:10029A007006E5367002C2031201B7D0E0D0D03240
:00000001FF
