:1001040000010200030000000400000000000000E1
:10008400E4F593F594F591F592F5B1F5B2F5B3F580
:10009400B4F5C9F5CAF5CBF5CCF5E1F5E2F59575FE
:1000A4009680758E80758CA2758A40D2A9D28CD226
:1000B400A77FFA1200F47FFA1200F4C2A7D2AF307D
:1000C40000FDC2000508C3E50894327480948040A2
:1000D40006E4F50812000ED3E50A940074809480B7
:1000E40040DDD2A77FFA1200F4C2A7E4F50A80CF5C
:0F00F4007D367C07ED1D70011C144C70F7DFF199
:0101030022D9
:03000B00020008E8
:03000800D20032F1
:040003007F3CDFFE61
:0100070022D6
:10000E00AE0C7580F0120003E58054F0F50C75808F
:10001E000F120003E580540F420C630CFFEE650CCB
:10002E007050AE09850C09E5096044C2D5EE700426
:10003E00D2D58016EEB50912050BE50BC3941474D8
:10004E008094804005750B12D2D530D525E509C4B4
:10005E00540F90010493FE6019E509540F93FF604D
:10006E0011EE25E025E0FEEF2E240CF50A8003E4C8
:05007E00F50B7580FF89
:01008300225A
:03000000020114E6
:0C011400787FE4F6D8FD7581200200849D
:00000001FF
