:03000000020100FA
:030023000201D502
:10010000E4F593F594F591F592F595F596F5B1F53D
:10011000B2F5B3F5B4F5C9F5CAF5CBF5CCF5E1F513
:10012000E27581D075D0007401120193D2AF9001B5
:100130005412016EE530B531028016200013D20052
:1001400074402530F886990530E530B420037530C9
:10015000000201345354433848384B363455205547
:1001600061727431205465737420210D0A00E49388
:10017000600AD200F5992000FDA380F222538EEF91
:10018000538EF7438E048583D68582D753AFFB43C6
:100190008E1022B4020B438E0190FFD012017D809D
:1001A0001BC28E538EFE438E405389BF5389CF7539
:1001B0008DFF758BD0C2AB538FFDD28E53983F43CA
:1001C0009840D29CD2AC53A23F43A200C2007531EA
:1001D0000075300022C0D0C0E0C000309813C29833
:1001E00074402531F8A6990531E531B42003753105
:0F01F00000309904C299C200D000D0E0D0D032C4
:00000001FF
