:03000000020100FA
:03000B000201E906
:10010000E4F593F594F591F592F595F596F5B1F53D
:10011000B2F5B3F5B4F5C9F5CAF5CBF5CCF5E1F513
:10012000E27581D075D00075380078307A08761184
:1001300008DAFB78327610087610C28C438E805332
:1001400089FB5389FC758CF6758AA0D2A9D28CD212
:10015000AF75390A3000FDC2003003F8C203E54133
:10016000C4540FF537E541540FF536E542C4540F3A
:10017000F535E542540FF534E540C4540FF531E54B
:1001800040540FF5300201543F065B4F666D7D070A
:100190007F6F777C395E79710040761E7038375CEE
:1001A000733E783D6750376EBF86DBCFE6EDFD8747
:1001B000FFEF460102040810204080C083C082C0C7
:1001C000009001B3E53893F4F5F8900188E5382400
:1001D00030F8E693F4F5E80538E53854F86003752F
:1001E0003800D000D082D08322C0D0C0E0C0071237
:1001F0000204D5390875390A1201BBD200D007D0E4
:10020000E0D0D032053AA20192D5A2B5920130D504
:1002100067200164AF3A753A00EFD394964003C269
:100220000222EFC39461400BEF947B404BD20275E6
:100230003B2022300242EFD3941E4003C20222E54B
:100240003FC313F53FEFC394104003433F80153B7A
:09025000E53B7015C202E53FF424
:10025900653E701B853C41853D42853E40D2032267
:10026900E53B54077009853C3D853E3C853F3E2270
:00000001FF
