:10002600C3FCC1EEC9E8D6C33A0D0A0045203078B4
:100036003030313233342020202020202020202050
:1000460020202D2D3E20C9C8C7F8B2C1B3FD2020FF
:10005600CAAEC1F9BDF8D6C6B5D8D6B70D0A00578F
:100066002030783030313233342031323334353643
:1000760037383930202D2D3E20D0B4C8EBB2D9D731
:10008600F72020CAAEC1F9BDF8D6C6B5D8D6B72076
:1000960020D0B4C8EBC4DAC8DD0D0A00522030788F
:1000A60030303132333420313020202020202020BF
:1000B60020202D2D3E20B6C1B3F6B2D9D7F7202089
:1000C600CAAEC1F9BDF8D6C6B5D8D6B72020B6C1D6
:1000D600B3F6D7D6BDDACAFD0D0A0043202020208C
:1000E600202020202020202020202020202020200A
:1000F600202D2D3E20C8E7B9FBBCECB2E2B2BBB561
:10010600BD504D32354C563034302F573235583479
:1001160030434C2F57323551383042562C20B7A237
:10012600CBCD43C7BFD6C6D4CAD0EDB2D9D7F72EEA
:100136000D0A0D0A00CEB4BCECB2E2B5BD504D328C
:10014600354C563034302F573235583430434C2FD7
:100156005732355138304256210D0A00BCECB2E216
:10016600B5BD504D32354C56303430210D0A00BCE9
:10017600ECB2E2B5BD573235583430434C210D0A46
:1001860000BCECB2E2B5BD5732355138304256218B
:100196000D0A00D6C6D4ECC9CC494431203D2030E6
:1001A600780020202020494432203D20307800204D
:1001B600202020C9E8B1B84944203D203078000D00
:1001C6000A00C7BFD6C6D4CAD0EDB2D9D7F7464CB7
:1001D600415348210D0A00504D32354C56303430CB
:1001E6002F573235583430434C2F5732355138302B
:1001F6004256B2BBB4E6D4DA2C20B2BBC4DCB2D9C8
:10020600D7F7464C415348210D0A00D2D1B2C1B3AB
:10021600FDD2BBB8F6C9C8C7F8CAFDBEDD210D0AB6
:1002260000D2AAD0B4C8EBB5C4B5D8D6B7CEAAB753
:10023600C7BFD52CB2BBC4DCD0B4C8EB2CC7EBCF40
:10024600C8B2C1B3FD210D0A00D2D1D0B4C8EB00AB
:10025600D7D6BDDACAFDBEDD210D0A00D0B4C8EB83
:10026600B4EDCEF3210D0A00B6C1B3F600B8F6D749
:10027600D6BDDACAFDBEDDC8E7CFC2A3BA0D0A00F5
:0C028600C3FCC1EEB4EDCEF3210D0A0064
:04000300C4540FFFD3
:1000070053070FEFC3940A74809480EF5004243091
:06001700FF222437FF2246
:1004F800E4F593F594F591F592F595F596F5B1F542
:10050800B2F5B3F5B4F5C9F5CAF5CBF5CCF5E1F517
:10051800E27F0A1209EE7F0112086BD2AF7BFF7AE5
:100528000079261209A87BFF7A0079321209A87B84
:10053800FF7A0079651209A87BFF7A0079A212096F
:10054800A87BFF7A0079E11209A8120A171207CBD3
:100558001207CBE50A70097BFF7A01793B0205E4B3
:10056800E50A640170087BFF7A017962801AE50A5E
:10057800640270087BFF7A017975800CE50A6403D0
:1005880070097BFF7A0179871209A87BFF7A0179C4
:10059800991209A8E50B1200031209C4AF0B120047
:1005A800071209C47BFF7A0179A81209A8E50C1281
:1005B80000031209C4AF0C1200071209C47BFF7AAA
:1005C8000179B51209A8E5091200031209C4AF0997
:1005D8001200071209C47BFF7A0179C51209A87FA6
:1005E800011209EED3E50894007480948040F01558
:1005F80008E50870EAD3E50D940074809480400300
:08060800120292E4F50D80D707
:0F09EE007DA57C06ED1D70011C144C70F7DFF128
:0109FD0022D7
:0C08EC0074002DF582E43400F583E0FF79
:1008F800EFC39430400CEFD394395006C3EF9430D3
:10090800FF22EFC39441400BEFD394465005EF24E8
:06091800C9FF227FFF224F
:10068D00E4F519F518F517F516900002E0643070D1
:10069D0060A3E06458705A751A04C3E51A940A747D
:1006AD0080948050437400251A1208EF8F1BC3EFFE
:1006BD0094107480948040028037AF19AE18AD1736
:1006CD00AC167804120858A804A905AA06AB07E4CD
:1006DD00FCFDFEEB251BF519EE3AF518ED39F51776
:1006ED00EC38F516051A80B2AF19AE18AD17AC1669
:0706FD0022E4FFFEFD7C80FA
:0107040022D2
:10095000E4FE7D0BEDC3950D501A1208ECEFC39425
:100960000A74809480500D1208ECEE75F00AA42FE2
:06097000FE0D80E0AF0661
:01097600225E
:10029200E50D64017013900000E0B4430C750A018F
:1002A2007BFF7A0179C81209A8E50A70097BFF7AF7
:1002B2000179DD0204F4C2D5C3E50D940A74809479
:1002C2008050030204EB900001E06420600302040A
:1002D200EBF514C3E514940A74809480502D7400D5
:1002E2002514F582E43400F583E0FFC394614017DE
:1002F200EFD3947A5011EF24E0FF74002514F582B5
:10030200E43400F583EFF0051480C812068D8F12D5
:100312008E118D108C0FE4FFFEFD7C80AB12AA11B2
:10032200A910A80FC312084740030204EB90000073
:10033200E0B44519AF12AE11AD10AC0F12091E7B1D
:10034200FF7A0279111209A8D2D50204EB900000BB
:10035200E06457600302042FC3E50D940C7480948B
:1003620080500302042F90000AE06420600302041C
:100372002FE50D24F5F515E4F514E514C395155094
:1003820012743B2514F582E43400F58374FFF00502
:100392001480E77A00793B1207058F14D3EF94009B
:1003A2007480948040097BFF7A027927020427AF88
:1003B20012AE11AD10AC0F7B017A00790B85151DC1
:1003C2001206107A00790B1207058F14EF70507B1A
:1003D200FF7A02794F1209A8C3E5159464748094D8
:1003E20080400C1209BBE51575F0648485F015C3D5
:1003F200E515940A74809480400F75F00A1209BEC4
:10040200E51575F00A8485F015E51575F00A84E5A1
:10041200F02430FF1209C47BFF7A02795680067BF2
:10042200FF7A0279621209A8D2D50204EB90000089
:10043200E0645260030204EBC3E50D940C748094F3
:100442008050030204EB90000AE06420600302047F
:10045200EB1209508F157E00D3EF940074809480C4
:1004620050030204EBEF943274809480507B7B0142
:100472007A00793B8E1D8F1EAF12AE11AD10AC0FFC
:100482001207787BFF7A02796E1209A8C3E51594E8
:10049200647480948040031209BBE51575F064848E
:1004A200E5F075F00A1209C0E51575F00A84E5F069
:1004B2002430FF1209C47BFF7A0279731209A8E47F
:1004C200F514E514C395155014743B2514F582E414
:1004D2003400F583E0FF1209C4051480E57F0D1294
:1004E20009C47F0A1209C4D2D520D5097BFF7A023A
:0504F20079861209A843
:0104F70022E2
:0909BB0075F064E515842430FF99
:0809C4008F99D2002000FD22F2
:1009A80012081CFF600C1209C4740129F9E43AFA10
:0309B80080EE22AC
:10097700AD07AC06538EEF538EF7438E048CD6AF7C
:0A098700058FD753AFFB438E1022FB
:10086B00EF6402700C438E017FD07EFF12097780FC
:10087B001BC28E538EFE438E405389BF5389CF7557
:10088B008DFF758BD0C2AB538FFDD28EE598543F45
:10089B004440F598D2ACD29C53A23FC200E4F50E73
:0308AB00F50D2226
:030023000208AE22
:1008AE00C0E0C083C082C0D0309823C298C3E50D8B
:1008BE00943B748094804003750D007400250DF5F3
:1008CE0082E43400F583E599F0050D75080530993D
:0E08DE0004C299C200D0D0D082D083D0E032C4
:070A1700D2A2C2A5D2A32266
:1009CC007E08EF25E0FF92A3D2A5C2A5DEF4D2A348
:0109DC0022F8
:1009DD007E08EF25E0FF30A4010FD2A5C2A5DEF2FF
:0109ED0022E7
:1007CB00C2A27FAB1209CCE4FF1209CCE4FF1209E1
:1007DB00CCE4FF1209CC1209DD8F0B1209DD8F0956
:1007EB001209DD8F0CD2A2E50B649D7009EF647FBB
:1007FB007004750A0122AF097E00EF641270047554
:10080B000A0222EF64134E7004750A0322E4F50A00
:01081B0022BA
:0C09FE00C2A27F051209CC1209DDD2A2B2
:010A0A0022C9
:100991001209FED3EF94007480948050F3C2A27FB9
:0709A100061209CCD2A222CC
:10091E008F198E188D178C16E50A6025120991C253
:10092E00A2E50A640170047FD780027F201209CCF1
:10093E00AF171209CCAF181209CCAF191209CCD2CD
:02094E00A222E3
:100778008F198E188D178C16E51E451D6044E50AE5
:1007880060401209FED3EF94007480948050F3C245
:10079800A27F031209CCAF171209CCAF181209CCEB
:1007A800AF191209CC1209DDEF120835740129F9C5
:1007B800E43AFAE51E151E7002151D14451D70E574
:0307C800D2A22298
:100705007B01751D0085151EAF12AE11AD10AC0F26
:080715008F198E188D178C1648
:10071D00E51E451D70037F0222E50A70037F02224C
:10072D001209FED3EF94007480948050F3E4FDC25F
:10073D00A27F031209CCAF171209CCAF181209CC46
:10074D00AF191209CC1209DD12081C6F60047D016E
:10075D008014740129F9E43AFAE51E151E7002158C
:0A076D001D14451D70DFD2A2AF0578
:01077700225F
:100610008F198E188D178C168B1A8A1B891CE51D55
:10062000606AE50A60661209FED3EF940074809454
:100630008050F3120991C2A27F021209CCAF1712A7
:1006400009CCAF181209CCAF191209CCAB1A051C92
:10065000E51CAA1B7002051B14F912081CFF1209E5
:10066000CCE5192401F519E43518F518E43517F52A
:1006700017E43516F516E519FFE4FEFDFCFBFAF963
:0D068000F8C31208476003D51DC2D2A222A4
:03000000020A0BE6
:0C0A0B00787FE4F6D8FD7581200204F825
:10081C00BB010689828A83E0225002E722BBFE02DA
:09082C00E32289828A83E493220D
:10083500BB010689828A83F0225002F722BBFE01A2
:02084500F3229C
:10084700EB9FF5F0EA9E42F0E99D42F0E89C45F007
:01085700227E
:10085800E8600FEFC333FFEE33FEED33FDEC33FCFE
:03086800D8F122A2
:00000001FF
