:03000000020100FA
:03000B00020525C6
:0300230002049440
:0300AB0002053318
:10010000E4F593F594F595F596F5B1F5B2F5B3F5FB
:10011000B4F5C9F5CAF5CBF5CCF5E1F5E2F5927584
:1001200091027581D075D00075380078307A0876E4
:100130001008DAFBC28C438E805389FB5389FC750F
:100140008CA9758A9AD2A9D28CD2AF75370175362F
:100150000275350875341012030E1202681202B2CD
:10016000740112044E9003451204293000FDC200B0
:10017000E53D7003020216D53DFAD202E53C70035C
:1001800002021654FC60099003D2120429020211E3
:100190007A007B007840A93CE6C394305009900374
:1001A0007D120429020211E6C3943A40099003FB30
:1001B0001204290202118A048B057F0A1202DF8EC3
:1001C000028F03E6C394302BFBE43AFA08D9C9EB5B
:1001D000C39401EA940140099003AB12042902027E
:1001E000111202CEEA600B753702753605753506B9
:1001F0008019EB75F06484F537E5F075F00A84F545
:100200003685F035E537700375371090036D1204AD
:1002100029753C00C202053AE53A70020539C3E58A
:100220003A942CE5399401500302016B753A00753C
:10023000390074011203211202F0ECC4540FF5339B
:05024000EC540FF53243
:10024500EDC4540FF531ED540FF530E533701175EC
:100255003310E532700A753210E5317003753110CF
:1002650002016B43BA80740090FEECF0746890FE56
:10027500E8F0740190FEECF0740290FEF2F0740068
:1002850090FEF3F0740090FEF5F0748090FEF6F0A9
:10029500740190FEB5F0740190FEB6F0748090FE86
:1002A500FDF090FEE0E04401F053BA7F2253BAF727
:1002B500E4547F54BF4410F5E7E44430440854FB4C
:1002C50044024480F5E6D2AF2243BA80EA90FEF5B7
:1002D500F0EB90FEF6F053BA7F22EF8DF0A4AEF06E
:1002E500CF8CF0A42EFEE435F0FD227A107B007C45
:1002F500007D00C3EF33FFEE33FEED3DD4FDEC3C56
:10030500D4FCEB3BD4FBDAEB2243BA80743F90FE7E
:10031500A8F053BA7F75DE2F75BC8022FF75BD002E
:1003250075BE00E5BC54D044404FF5BC000000004C
:10033500E5BC30E5FB53BCDFE5BD540FFEAFBE2287
:1003450050574DBACD414443B2E2CAD4B3CCD0F2F2
:100355002C20CAE4C8EBD5BCBFD5B1C8CEAA203085
:100365007E323536210D0A00D2D1B8FCD0C2D5BCBB
:10037500BFD5B1C8210D0A00B4EDCEF32120BDD300
:10038500CAD5B5BDD0A1D3DA30B5C4CAFDD7D6D745
:10039500D6B7FB2120D5BCBFD5B1C8CEAA307E3299
:1003A5003536210D0A00B4EDCEF32120CAE4C8EBA1
:1003B500D5BCBFD5B1C8B9FDB4F32C20C7EBB2BBD2
:1003C500D2AAB4F3D3DA323536210D0A00B4EDCE14
:1003D500F32120CAE4C8EBD7D6B7FBB9FDB6E021B7
:1003E50020CAE4C8EBD5BCBFD5B1C8CEAA307E3291
:1003F5003536210D0A00B4EDCEF32120BDD3CAD583
:10040500B5BDB4F3D3DA39B5C4CAFDD7D6D7D6B797
:10041500FB2120D5BCBFD5B1C8CEAA307E3235363A
:0F042500210D0A00E493600AD201F5992001FD30
:10043400A380F222538EEF538EF7438E048583D626
:100444008582D753AFFB438E1022B4020B438E0137
:1004540090FFD0120438801BC28E538EFE438E4010
:100464005389BF5389CF758DFF758BD0C2AB538F22
:10047400FDD28ED29CD2AC53983F439840D29CD2AA
:10048400AC53A23F43A200C201753C00753B00225D
:10049400C0D0C0E0C000309819C298200214E53CD6
:1004A400B41003753C007440253CF8A699053C75CE
:1004B4003D05309904C299C201D000D0E0D0D032B9
:1004C4003F065B4F666D7D077F6F777C395E797180
:1004D4000040761E7038375C733E783D6750376E47
:1004E400BF86DBCFE6EDFD87FFEF4601020408106F
:1004F400204080C083C082C0009004EFE53893F4AC
:10050400F5F89004C4E5382430F8E693F4F5E805EA
:1005140038E53854F86003753800D000D082D083B1
:1005240022C0D0C0E01204F7D200D0E0D0D032C054
:10053400D0C0E0C00253E6BFE5E61392C7D002D0B4
:04054400E0D0D03201
:00000001FF
