:03000000020100FA
:03000B000201C02F
:03001B000201CB14
:030063000201D6C1
:03009B000201E17E
:0300A3000201EC6B
:10010000E4F593F594F591F592F595F596F5B1F53D
:10011000B2F5B3F5B4F5C9F5CAF5CBF5CCF5E1F513
:10012000E27581D075D00012013D1201591201759E
:1001300012018E1201A7D2AFC2C002013AC28CD204
:10014000A95389FC4389005389FB538FFE438E805A
:10015000758CA2758A40D28C22C28ED2AB5389CFC5
:100160004389005389BF538FFD438E40758DD175F0
:100170008B20D28E22538EE343AF04538FFB538FD9
:10018000FD438E0475D6E075D7C0438E102253D13F
:10019000F043AF2053D1FE538FFD43D10275D4E815
:1001A00075D59043D1082253D10F43AF4053D1EFBF
:1001B000538FFD43D12075D2ED75D34043D18022BA
:1001C000C0D0C0E0B2EFD0E0D0D032C0D0C0E0B2FA
:1001D000EED0E0D0D032C0D0C0E0B2EDD0E0D0D090
:1001E00032C0D0C0E0B2ECD0E0D0D032C0D0C0E05D
:0701F000B2EBD0E0D0D032E9
:00000001FF
