:03000000020100FA
:03000B000202618D
:10010000E4F593F594F595F596F5B1F5B2F5B3F5FB
:10011000B4F5C9F5CAF5CBF5CCF5E1F5E2F5927584
:1001200091087581D075D00075380078307A0876DE
:100130001008DAFBC28C438E805389FB5389FC750F
:100140008CA2758A40D2A9D28CD2AF1201C93000DC
:10015000FDC200053AE53A70020539C3E53A942C30
:10016000E539940140E8753A00753900740F1201C1
:10017000DC8E3B8F3C74031201DC8E3D8F3EAC3D28
:10018000AD3E7F771202C87C00AA3BAB3C12026FE7
:100190001201AB753310EC540F2420F532EDC4542A
:1001A0000FF531ED540FF53002014E7A107B007CD3
:1001B000007D00C3EF33FFEE33FEED3DD4FDEC3C9C
:1001C000D4FCEB3BD4FBDAEB2243BA80743F90FEC5
:1001D000A8F053BA7F75DE2F75BC8022FF75BD0075
:1001E00075BE00E5BC54D044404FF5BC0000000093
:1001F000E5BC30E5FB53BCDFE5BD540FFEAFBE22CE
:100200003F065B4F666D7D077F6F777C395E797146
:100210000040761E7038375C733E783D6750376E0D
:10022000BF86DBCFE6EDFD87FFEF46010204081035
:10023000204080C083C082C00090022BE53893F438
:10024000F5F8900200E5382430F8E693F4F5E80577
:010250003875
:10025100E53854F86003753800D000D082D083228D
:10026100C0D0C0E0120233D200D0E0D0D032BA0008
:100271002DEC8BF084CFCECDFCE5F0CBF97818EFE7
:100281002FFFEE33FEED33FDEC33FCEB33FB10D7E8
:1002910003994004EB99FB0FD8E5E4F9FA227818A9
:1002A100EF2FFFEE33FEED33FDEC33FCC933C91004
:1002B100D7059BE99A4007EC9BFCE99AF90FD8E036
:1002C100E4C9FAE4CCFB22EF8DF0A4AEF0CF8CF0C0
:0802D100A42EFEE435F0FD222D
:00000001FF
