:03000000020100FA
:03008B000201BCB3
:10010000E4F593F594F591F592F595F596F5B1F53D
:10011000B2F5B3F5B4F5C9F5CAF5CBF5CCF5E1F513
:10012000E27581D075D0007401120193D2AF9001B5
:100130005412016EE530B531028016200013D20052
:1001400074402530F886AD0530E530B420037530B5
:10015000000201345354433848384B363455205547
:1001600061727433205465737420210D0A00E49386
:10017000600AD200F5AD2000FDA380F222538EEF7D
:10018000538EF7438E048583D68582D753AFFB43C6
:100190008E1022B4020B43AC1090FFD012017D8070
:1001A0000C75AC5075D4FF75D5D075D10A53BAFD16
:1001B00043AF08C20075310075300022C0D0C0E0E6
:1001C000C000E5AC30E01453ACFE74402531F8A615
:1001D000AD0531E531B42003753100E5AC30E10502
:0C01E00053ACFDC200D000D0E0D0D03203
:00000001FF
