:10002600C3FCC1EEC9E8D6C33A0D0A0045203078B4
:100036003030313233342020202020202020202050
:1000460020202D2D3E20C9C8C7F8B2C1B3FD2020FF
:10005600CAAEC1F9BDF8D6C6B5D8D6B70D0A00578F
:100066002030783030313233342031323334353643
:1000760037383930202D2D3E20D0B4C8EBB2D9D731
:10008600F72020CAAEC1F9BDF8D6C6B5D8D6B72076
:1000960020D0B4C8EBC4DAC8DD0D0A00522030788F
:1000A60030303132333420313020202020202020BF
:1000B60020202D2D3E20B6C1B3F6B2D9D7F7202089
:1000C600CAAEC1F9BDF8D6C6B5D8D6B72020B6C1D6
:1000D600B3F6D7D6BDDACAFD0D0A0043202020208C
:1000E600202020202020202020202020202020200A
:1000F600202D2D3E20C8E7B9FBBCECB2E2B2BBB561
:10010600BD504D32354C563034302F573235583479
:1001160030434C2F57323551383042562C20B7A237
:10012600CBCD43C7BFD6C6D4CAD0EDB2D9D7F72EEA
:100136000D0A0D0A00CEB4BCECB2E2B5BD504D328C
:10014600354C563034302F573235583430434C2FD7
:100156005732355138304256210D0A00BCECB2E216
:10016600B5BD504D32354C56303430210D0A00BCE9
:10017600ECB2E2B5BD573235583430434C210D0A46
:1001860000BCECB2E2B5BD5732355138304256218B
:100196000D0A00D6C6D4ECC9CC494431203D2030E6
:1001A60078000D0A202020202020494432203D20BE
:1001B6003078000D0A202020C9E8B1B84944203D16
:1001C600203078000D0A00C7BFD6C6D4CAD0EDB21B
:1001D600D9D7F7464C415348210D0A00504D3235C8
:1001E6004C563034302F573235583430434C2F5715
:1001F60032355138304256B2BBB4E6D4DA2C20B28E
:10020600BBC4DCB2D9D7F7464C415348210D0A008E
:10021600D2D1B2C1B3FDD2BBB8F6C9C8C7F8CAFDC0
:10022600BEDD210D0A00D2AAD0B4C8EBB5C4B5D83C
:10023600D6B7CEAAB7C7BFD52CB2BBC4DCD0B4C81C
:10024600EB2CC7EBCFC8B2C1B3FD210D0A00D2D14A
:10025600D0B4C8EB00D7D6BDDACAFDBEDD210D0A83
:1002660000D0B4C8EBB4EDCEF3210D0A00B6C1B38D
:10027600F600B8F6D7D6BDDACAFDBEDDC8E7CFC2EE
:10028600A3BA0D0A00C3FCC1EEB4EDCEF3210D0AEC
:010296000067
:04000300C4540FFFD3
:1000070053070FEFC3940A74809480EF5004243091
:06001700FF222437FF2246
:1004FD00E4F593F594F591F592F595F596F5B1F53D
:10050D00B2F5B3F5B4F5C9F5CAF5CBF5CCF5E1F512
:10051D00E27F0A1209F27F0112086CD2AF7BFF7ADB
:10052D000079261209CE7BFF7A0079321209CE7B33
:10053D00FF7A0079651209CE7BFF7A0079A2120944
:10054D00CE7BFF7A0079E11209CE12097812081FCD
:10055D0012081FE50A70097BFF7A01793B0205E954
:10056D00E50A640170087BFF7A017962801AE50A59
:10057D00640270087BFF7A017975800CE50A6403CB
:10058D0070097BFF7A0179871209CE7BFF7A017999
:10059D00991209CEE50B1200031209EAAF0B1200F6
:1005AD00071209EA7BFF7A0179A81209CEE50C1230
:1005BD0000031209EAAF0C1200071209EA7BFF7A59
:1005CD000179B91209CEE5091200031209EAAF0942
:1005DD001200071209EA7BFF7A0179CA1209CE7F50
:1005ED00011209F2D3E50894007480948040F0154F
:1005FD0008E50870EAD3E50D9400748094804003FB
:08060D00120297E4F50D80D7FD
:0F09F2007DA57C06ED1D70011C144C70F7DFF124
:010A010022D2
:0C08ED0074002DF582E43400F583E0FF78
:1008F900EFC39430400CEFD394395006C3EF9430D2
:10090900FF22EFC39441400BEFD394465005EF24E7
:06091900C9FF227FFF224E
:10069200E4F519F518F517F516900002E0643070CC
:1006A20060A3E06458705A751A04C3E51A940A7478
:1006B20080948050437400251A1208F08F1BC3EFF8
:1006C20094107480948040028037AF19AE18AD1731
:1006D200AC16780412080CA804A905AA06AB07E414
:1006E200FCFDFEEB251BF519EE3AF518ED39F51771
:1006F200EC38F516051A80B2AF19AE18AD17AC1664
:0707020022E4FFFEFD7C80F4
:0107090022CD
:10095100E4FE7D0BEDC3950D501A1208EDEFC39423
:100961000A74809480500D1208EDEE75F00AA42FE0
:06097100FE0D80E0AF0660
:01097700225D
:10029700E50D64017013900000E0B4430C750A018A
:1002A7007BFF7A0179CD1209CEE50A70097BFF7AC7
:1002B7000179E20204F9C2D5C3E50D940A7480946A
:1002C7008050030204F0900001E064206003020400
:1002D700F0F514C3E514940A74809480502D7400CB
:1002E7002514F582E43400F583E0FFC394614017D9
:1002F700EFD3947A5011EF24E0FF74002514F582B0
:10030700E43400F583EFF0051480C81206928F12CB
:100317008E118D108C0FE4FFFEFD7C80AB12AA11AD
:10032700A910A80FC31207FB40030204F0900000B6
:10033700E0B44519AF12AE11AD10AC0F12091F7B17
:10034700FF7A0279161209CED2D50204F090000086
:10035700E064576003020434C3E50D940C74809481
:1003670080500302043490000AE064206003020412
:1003770034E50D24F5F515E4F514E514C39515508A
:1003870012743B2514F582E43400F58374FFF005FD
:100397001480E77A00793B12070A8F14D3EF940091
:1003A7007480948040097BFF7A02792C02042CAF79
:1003B70012AE11AD10AC0F7B017A00790B85151DBC
:1003C7001206157A00790B12070A8F14EF70507B0B
:1003D700FF7A0279541209CEC3E5159464748094A8
:1003E70080400C1209E1E51575F0648485F015C3AA
:1003F700E515940A74809480400F75F00A1209E499
:10040700E51575F00A8485F015E51575F00A84E59C
:10041700F02430FF1209EA7BFF7A02795B80067BC2
:10042700FF7A0279671209CED2D50204F090000054
:10043700E0645260030204F0C3E50D940C748094E9
:100447008050030204F090000AE064206003020475
:10045700F01209518F157E00D3EF940074809480B9
:1004670050030204F0EF943274809480507B7B0138
:100477007A00793B8E1D8F1EAF12AE11AD10AC0FF7
:1004870012077D7BFF7A0279731209CEC3E51594B3
:10049700647480948040031209E1E51575F0648463
:1004A700E5F075F00A1209E6E51575F00A84E5F03E
:1004B7002430FF1209EA7BFF7A0279781209CEE429
:1004C700F514E514C395155014743B2514F582E40F
:1004D7003400F583E0FF1209EA051480E57F0D1269
:1004E70009EA7F0A1209EAD2D520D5097BFF7A02E9
:0504F700798B1209CE13
:0104FC0022DD
:0909E10075F064E515842430FF73
:0809EA008F99D2002000FD22CC
:1009CE001207D0FF600C1209EA740129F9E43AFA11
:0309DE0080EE2286
:10099D00AD07AC06538EEF538EF7438E048CD6AF56
:0A09AD00058FD753AFFB438E1022D5
:10086C00EF6402700C438E017FD07EFF12099D80D5
:10087C001BC28E538EFE438E405389BF5389CF7556
:10088C008DFF758BD0C2AB538FFDD28EE598543F44
:10089C004440F598D2ACD29C53A23FC200E4F50E72
:0308AC00F50D2225
:030023000208AF21
:1008AF00C0E0C083C082C0D0309823C298C3E50D8A
:1008BF00943B748094804003750D007400250DF5F2
:1008CF0082E43400F583E599F0050D75080530993C
:0E08DF0004C299C200D0D0D082D083D0E032C3
:1009780043CE8043CE4053CEDF43CE1053CEF75301
:10098800CEFB53CEFCE5A254F34404F5A2C2A5D293
:05099800A375CDC02293
:0C0A1E008FCFE5CD548060FA75CDC0226A
:0F0A020075CFFFE5CD548060FA75CDC0AFCF2220
:10081F00C2A27FAB120A1EE4FF120A1E120A1E1298
:10082F000A1E120A028F0B120A028F09120A028F76
:10083F000CD2A2E50B649D7009EF647F7004750AFA
:10084F000122AF097E00EF64127004750A0222EFD5
:0D085F0064134E7004750A0322E4F50A22AA
:0C0A1100C2A27F05120A1E120A02D2A225
:010A1D0022B6
:1009B700120A11D3EF94007480948050F3C2A27F7F
:0709C70006120A1ED2A22253
:10091F008F198E188D178C16E50A60251209B7C22C
:10092F00A2E50A640170047FD780027F20120A1E9D
:10093F00AF17120A1EAF18120A1EAF19120A1ED2D3
:02094F00A222E2
:10077D008F198E188D178C16E51E451D6044E50AE0
:10078D006040120A11D3EF94007480948050F3C22C
:10079D00A27F03120A1EAF17120A1EAF18120A1EED
:1007AD00AF19120A1E120A02EF1207E9740129F994
:1007BD00E43AFAE51E151E7002151D14451D70E56F
:0307CD00D2A22293
:10070A007B01751D0085151EAF12AE11AD10AC0F21
:08071A008F198E188D178C1643
:10072200E51E451D70037F0222E50A70037F022247
:10073200120A11D3EF94007480948050F3E4FEC245
:10074200A27F03120A1EAF17120A1EAF18120A1E48
:10075200AF19120A1E120A021207D06F60047E013C
:100762008014740129F9E43AFAE51E151E70021587
:0A0772001D14451D70DFD2A2AF0672
:01077C00225A
:100615008F198E188D178C168B1A8A1B891CE51D50
:10062500606AE50A6066120A11D3EF94007480943B
:100635008050F31209B7C2A27F02120A1EAF171229
:100645000A1EAF18120A1EAF19120A1EAB1A051C94
:10065500E51CAA1B7002051B14F91207D0FF120A2C
:100665001EE5192401F519E43518F518E43517F5D3
:1006750017E43516F516E519FFE4FEFDFCFBFAF95E
:0D068500F8C31207FB6003D51DC2D2A222EC
:03000000020A2AC7
:0C0A2A00787FE4F6D8FD7581200204FD01
:1007D000BB010689828A83E0225002E722BBFE0227
:0907E000E32289828A83E493225A
:1007E900BB010689828A83F0225002F722BBFE01EF
:0207F900F322E9
:1007FB00EB9FF5F0EA9E42F0E99D42F0E89C45F054
:01080B0022CA
:10080C00E8600FEFC333FFEE33FEED33FDEC33FC4A
:03081C00D8F122EE
:00000001FF
