:03000000020100FA
:03000B0002026B83
:10010000E4F593F594F591F592F595F596F5B1F53D
:10011000B2F5B3F5B4F5C9F5CAF5CBF5CCF5E1F513
:10012000E27581D075D000C28C438E805389FB5319
:1001300089FC758CA2758A40D2A9D28C120199D201
:10014000AF753932E4F53AF53BF53CF5383000FD52
:10015000C200E538601A43BA80748090FEB1F07432
:10016000FA12017C740090FEB1F053BA7F7538002A
:10017000D539DA7539321201FD02014DC002C003D2
:10018000C004FA7B097C60EC1C70011B144B70F7F7
:10019000DAF1D004D003D0022243BA80E490FECD3D
:1001A000F0743090FECBF0745090FECDF074079058
:1001B000FED2F074FF90FED3F0748090FEB1F07424
:1001C0004090FEB2F0748090FEDDF090FEC0E044FE
:1001D00001F074FA12017C12017C740090FEB1F0FF
:1001E00053BA7F2200010200030000000400000057
:1001F00000000000C0037B3CDBFED00322C006C031
:1002000007AE3B7580F01201F4E58054F0F53B75C4
:10021000800F1201F4E580540F453BF53B633BFF33
:10022000EEB53B3FAE3A853B3AE53A6033EE600EC1
:10023000EEB53A2F053CE53CB41428753C12E53A7E
:08024000C4540F9001E493FE89
:100248006019E53A540F93FF6011EE25E025E0FEB2
:10025800EF2E240CF5388003753C007580FFD0071D
:0E026800D00622C0D0C0E0D200D0E0D0D0320C
:00000001FF
