:03000000020100FA
:030043000201B106
:10010000E4F593F594F591F592F595F596F5B1F53D
:10011000B2F5B3F5B4F5C9F5CAF5CBF5CCF5E1F513
:10012000E27581D075D0007402120193D2AF9001B4
:100130005412016EE530B531028016200013D20052
:1001400074402530F8869B0530E530B420037530C7
:10015000000201345354433848384B363455205547
:1001600061727432205465737420210D0A00E49387
:10017000600AD200F59B2000FDA380F222538EEF8F
:10018000538EF7438E048583D68582D753AFFB43C6
:100190008E1022B4021A90FFD012017D539A7F4331
:1001A000AF01439A1043BA01C200753100753000A7
:1001B00022C0D0C0E0C000E59A30E014539AFE742B
:1001C000402531F8A69B0531E531B4200375310097
:1001D000E59A30E105539AFDC200D000D0E0D0D0BE
:0101E00032EC
:00000001FF
