:03000000020100FA
:030093000201BCAB
:10010000E4F593F594F591F592F595F596F5B1F53D
:10011000B2F5B3F5B4F5C9F5CAF5CBF5CCF5E1F513
:10012000E27581D075D0007401120193D2AF9001B5
:100130005412016EE530B531028016200013D20052
:1001400074402530F886850530E530B420037530DD
:10015000000201345354433848384B363455205547
:1001600041525434205465737420210D0A00E493E5
:10017000600AD200F5852000FDA380F222538EEFA5
:10018000538EF7438E048583D68582D753AFFB43C6
:100190008E1022B4020B43841090FFD012017D8098
:1001A0000C75845075D2FF75D3D075D1A053BAFBAE
:1001B00043AF10C20075310075300022C0D0C0E0DE
:1001C000C000E58430E0145384FE74402531F8A665
:1001D000850531E531B42003753100E58430E10552
:0C01E0005384FDC200D000D0E0D0D0322B
:00000001FF
