:03000000020100FA
:0300D300020184A3
:10010000E4F593F594F591F592F595F596F5B1F53D
:10011000B2F5B3F5B4F5C9F5CAF5CBF5CCF5E1F513
:10012000E27581D075D00012012FD2AF02012C43AD
:10013000BA80E490FECCF0746090FEC8F074059034
:10014000FECCF0740990FED2F0746090FED3F0748F
:100150000490FED5F074C490FED6F0740C90FEDED0
:10016000F0740390FEB1F0740290FEB2F0748090CF
:10017000FEDDF0740190FEC4F090FEC0E04401F09A
:1001800053BA7F22C0D0C0E0C0BA43BA8090FEC547
:10019000E030E120E4F0E5301201BBE49390FED5BD
:1001A000F074019390FED6F00530C3E53094C8405A
:1001B00003753000D0BAD0E0D0D0329001D7C00162
:1001C000F92582F582E43583F583E92582F582E419
:1001D0003583F583D0012204C404E8050C053005FD
:1001E000540578059B05BF05E206050627064A0665
:1001F0006B068D06AE06CE06EE070D072C074A07E6
:1002000068078507A107BD07D707F1080A08230873
:100210003A08510866087B088F08A208B408C50888
:10022000D508E308F108FE090A0914091E09260980
:100230002E09340939093D0940094109420941099A
:1002400040093D09390934092E0926091E091409F6
:100250000A08FE08F108E308D508C508B408A20892
:100260008F087B08660851083A0823080A07F10737
:10027000D707BD07A107850768074A072C070D06A2
:10028000EE06CE06AE068D066B064A062706050567
:10029000E205BF059B057805540530050C04E8040C
:1002A000C404A0047C04580434041003ED03C903FF
:1002B000A603830361033E031D02FB02DA02BA02B6
:1002C0009A027B025C023E0220020301E701CB019D
:1002D000B10197017E0165014E01370122010D0038
:1002E000F900E600D400C300B300A50097008A001F
:1002F0007E0074006A0062005A0054004F004B00F8
:10030000480047004600470048004B004F0054009B
:100310005A0062006A0074007E008A009700A500FF
:10032000B300C300D400E600F9010D01220137013A
:100330004E0165017E019701B101CB01E702030285
:1003400020023E025C027B029A02BA02DA02FB033E
:100350001D033E0361038303A603C903ED041004D8
:07036000340458047C04A0E2
:00000001FF
