:03000000020100FA
:03000B00020314D9
:10010000E4F593F594F591F592F595F596F5B1F53D
:10011000B2F5B3F5B4F5C9F5CAF5CBF5CCF5E1F513
:10012000E27581D075D00075380078307A08761085
:1001300008DAFBC28C438E805389FB5389FC758C93
:10014000A2758A40D2A9D28CD2AF3000FDC2000580
:100150003AE53A70020539C3E53A942CE539940141
:1001600040E8753A00753900515974CC5195744482
:10017000519530B3FD515974CC519574BE51955180
:1001800076FD5176FC7F051201DC7C007A007B084D
:100190001201ED1201BEECC4540FF533EC540FF50F
:1001A00032EDC4540F2420F531ED540FF530E53312
:1001B000700375331030D50375331102014A7A107C
:1001C0007B007C007D00C3EF33FFEE33FEED3DD4BA
:1001D000FDEC3CD4FCEB3BD4FBDAEB22EF8DF0A43E
:1001E000AEF0CF8CF0A42EFEE435F0FD22BA002D47
:1001F000EC8BF084CFCECDFCE5F0CBF97818EF2F67
:06020000FFEE33FEED33BA
:10020600FDEC33FCEB33FB10D703994004EB99FB71
:100216000FD8E5E4F9FA227818EF2FFFEE33FEED5A
:1002260033FDEC33FCC933C910D7059BE99A400767
:10023600EC9BFCE99AF90FD8E0E4C9FAE4CCFB227E
:1002460000000000000000000000000000000000A8
:10025600DFEE22C2B37FF051467FF05146D2B37F24
:100266003C5146A2B37FF051467FB4514640E4224A
:10027600E4C000750008C2B37F015146D2B37F01C6
:100286005146A2B3137F3C5146D500EAD00022C0A6
:1002960000750008C2B37F0151461392B37F3C51EB
:1002A60046D2B37F015146D500EAD000223F065B15
:1002B6004F666D7D077F6F777C395E79710040767A
:1002C6001E7038375C733E783D6750376EBF86DBED
:1002D600CFE6EDFD87FFEF460102040810204080BF
:1002E600C083C082C0009002DEE53893F4F5F89032
:1002F60002B3E5382430F8E693F4F5E80538E53836
:1003060054F86003753800D000D082D08322C0D064
:0B031600C0E01202E6D200D0E0D0D020
:0103210032A9
:00000001FF
