:03000000020100FA
:040003003202015A6A
:03000B0002015798
:0300130002015B8C
:03001B0002015887
:0300230002015F78
:03002B000201616E
:0300330002016265
:03003B000201635C
:0300430002016057
:03004B000201644B
:0300530002015C4B
:03005B0002015D42
:030063000201593E
:0300830002015E19
:10010000E4F593F594F591F592F595F596F5B1F53D
:10011000B2F5B3F5B4F5C9F5CAF5CBF5CCF5E1F513
:10012000E27581D075D000C2C078FE88E8E823F877
:1001300074FA12013A12013A80F1C002C003C004FD
:10014000FA7B097C60EC1C70011B144B70F7DAF130
:10015000D004D003D0022232323232323232323242
:050160003232323232A0
:00000001FF
