:03000000020100FA
:03000B000201EC03
:10010000E4F593F594F591F592F595F596F5B1F53D
:10011000B2F5B3F5B4F5C9F5CAF5CBF5CCF5E1F513
:10012000E27581D075D000C200C201C202C203755F
:100130003100753000753300753201753500753446
:1001400002753700753604C28C438E805389FB5389
:1001500089FC758CA2758A40D2A9D28CD2AF1201CB
:100160006402016143BA80E490FEECF090FEEDF091
:10017000746090FEE8F090FEE9F090FEEAF090FEE8
:10018000EBF0743390FEECF090FEEDF0740390FE13
:10019000F2F074FF90FEF3F0745590FEB5F0740029
:1001A00090FEB6F0748090FEFDF090FEE0E0440119
:1001B000F053BA7F2243BA80E53090FEF5F0E53186
:1001C00090FEF6F0E53290FEF7F0E53390FEF8F0A1
:1001D000E53490FEF9F0E53590FEFAF0E53690FE54
:1001E000FBF0E53790FEFCF053BA7F22C0D0C0E0B0
:1001F0002000170531E53170020530C3E53194FF69
:10020000E53094074016D2008012E53115317002B6
:100210001530E5317006E5307002C2002001170587
:1002200033E53370020532C3E53394FFE5329407BA
:0A0230004016D2018012E5331533A9
:10023A0070021532E5337006E5327002C2012002FF
:10024A00170535E53570020534C3E53594FFE53405
:10025A0094074016D2028012E5351535700215341E
:10026A00E5357006E5347002C2022003170537E54A
:10027A003770020536C3E53794FFE5369407401612
:10028A00D2038012E537153770021536E537700646
:0E029A00E5367002C2031201B5D0E0D0D032BA
:00000001FF
